:100000000200A880338C2B8D2C8013758CD8758AB8
:10001000F0D28C308D02800280F9C28DC28CAC2B64
:10002000E52CFD152C7002152BED24FFEC648034BB
:100030007F4002800280D42280CB80567589017572
:10004000220075230175240275250475260875277D
:1000500010752820752940752A80852290E526256F
:1000600027F5907C007D64120003E5252528F59096
:100070007C007DC8120003E5242529F5907C017DD4
:1000800090120003E523252AF5907C037D201200C1
:10009000032280A8E4F5D075812D78207A0DF6082A
:0B00A000DAFC12003A0200000200949B
:00000001FF
