:10000000020058898288838B00EC4D6036E4E0F66C
:1000100008A31DBDFFF31C80F0B800118B00EC4D50
:100020006021E7F609081DBDFFF41C80F189828874
:10003000838B00EC4D600CE493F608A31DBDFFF329
:100040001C80F022E4F5D075813F78207A1FF608F5
:0B005000DAFC12019B020000020044D9
:100100003738392B003435362D003132332A00434D
:10011000303D2F00800A85058075A00175A0002262
:1001200080F480098D8075A00375A0022280F5807F
:100130000A75800075A00175A0002280F4805AE441
:10014000F539F53A8C3B8D3C8037E4F53DF53EE5DD
:100150003E2488E53D6480347A500280028002802B
:1001600018053EE53E7002053DE53E2488E53D6408
:1001700080347A5002800280E8053AE53A70020540
:1001800039C3E53A953C853BF063F080E5396480FE
:1001900095F04002800280B22280A40202647801BD
:1001A00079007A007B207D147C0012001975A00074
:1001B0007580007590F075B0FF85903485B0357C02
:1001C000007D80120114E5B0B535058000020260A3
:1001D00085B036E5B0B4FE057537008026E5B0B4CD
:1001E000FD05753701801CE5B0B4FB05753702804D
:1001F00012E5B0B4F7057537038008E5B0B4EF0336
:1002000075370475B0007590FFE590B4FE0575383C
:1002100000801CE590B4FD057538018012E590B4AE
:10022000FB057538028008E590B4F703753803E5DF
:100230003875F005A42537500205F0A8F0A9E07440
:100240002029F987051201227C007D2812013D75C5
:10025000B0FF7590F08000E5B0B53604800080F7FF
:070260000201C62202019E0B
:00000001FF
