:100000000200B280108D998D258000309902800207
:1000100080F9C2992280EE80188000309802800218
:1000200080F9859924AD24120003C298AB24800086
:100030002280E6806775204075878075989C758959
:1000400020D28E7D0A1200037D731200037D74128C
:1000500000037D611200037D721200037D741200A3
:10006000037D3A1200037D0A120003C29875220034
:10007000E52224F15002800280028018E523252029
:10008000F8120017EBF605230522E52224F15002B1
:10009000800280E87D0A12000380FE228097E4F54A
:1000A000D075812678207A06F608DAFC1200330231
:0500B000000002009EAB
:00000001FF
