:100000000200EFE4F5F0F8F9EA4B6043EC4D7013B1
:1000100022EAC39C40137004EB9D400DEDC333FDF9
:10002000EC33FC05F0EC30E7E8EAC39C40067007CF
:10003000EB9D5003C38008C3EB9DFBEA9CFAD3E918
:1000400033F9E833F8ECC313FCED13FDD5F0DA8B8C
:10005000058A048802890322C000C001120003D06F
:1000600001D00022C000C001120003D001D0008CDA
:10007000028D0322EA30E707E4C39BFBE49AFAEC23
:1000800030E707E4C39DFDE49CFC22120093AA0420
:10009000AB0522C000C001EC6A33EA13C0E01200D5
:1000A00074120003D0E0C0E030E707E4C39BFBE438
:1000B0009AFAD0E030E607E4C39DFDE49CFCD00151
:1000C000D00022C006C007AE04AF058E838F821217
:1000D00002E2A3AE83AF8270F2EFC39505FBEE950B
:1000E00004FAEB24FFFBEA34FFFAD007D006220221
:0200F000039675
:10010000A0A1AFA1A000A2A0A4A9AD002000800AD8
:1001100085058075A00175A0002280F480098D807E
:1001200075A00375A0022280F5800A75800075A075
:100130000175A0002280F4805AE4F538F5398C3C32
:100140008D3D8037E4F53AF53BE53B2424E53A6400
:1001500080347A5002800280028018053BE53B70B3
:1001600002053AE53B2424E53A6480347A50028063
:100170000280E80539E53970020538C3E539953D57
:10018000853CF063F080E538648095F040028002A1
:1001900080B22280A40202DF752A00752B14780138
:1001A00079007A007B2C7D067C0012036B78017944
:1001B000067A007B327D067C0012036B75A0007509
:1001C00080007C007D2C1200C38A228B237C007D62
:1001D000321200C38A268B277C007DC012010EE4F8
:1001E000F524F525801974322525F9870512011C9F
:1001F0007C017D0C12011C0525E52570020524E516
:1002000026B52407E527B525028006500280028026
:10021000D5E4F528F529E4F520F52180407C007D22
:1002200014AA28AB291200647414C39BFD74009AAD
:10023000FCED2521FBEC3520FA7C007D14120064D6
:10024000EB2480FDEA3400FC12010E742C2521F908
:10025000870512011C0521E52170020520E522B564
:100260002007E523B5210280065002800280AE7C83
:10027000007D1E120137120129E4F520F521803D91
:100280007C007D14AA28AB291200647414C39BFD62
:1002900074009AFCED2521FBEC3520FA7C007D14DE
:1002A000120064EB2480FDEA3400FC12010E7C0194
:1002B0007D0C12011C0521E52170020520E522B507
:1002C0002007E523B5210280065002800280B1E5B7
:1002D000292402F529E5283400F528020216220215
:1002E0000198E5836003E49322A882E622E5836017
:1002F00004E4938003A882E6F822E5836004E49393
:100300008003A882E6F922E5836004E4938003A8D1
:1003100082E6FA22E5836004E4938003A882E6FB88
:1003200022E5836004E4938003A882E6FC22E5834F
:100330006004E4938003A882E6FD22E5836004E480
:10034000938003A882E6FE22E5836004E4938003A1
:10035000A882E6FF22898288838B00EC4D6036E418
:10036000E0F608A31DBDFFF31C80F0B800118B0060
:10037000EC4D6021E7F609081DBDFFF41C80F189F2
:100380008288838B00EC4D600CE493F608A31DBDBE
:10039000FFF31C80F022E4F5D075813E78207A1EB0
:0A03A000F608DAFC120195020000D5
:00000001FF
