:10000000020236020141752000752105C2847590F7
:10001000FE75CB2975CA2853C8FCD2ADD2AFD2CA5F
:10002000AC20AD217A0D7B701201D48A228B23E59E
:1000300021B40207E520B400028002800675220583
:100040007523FA805A20800280028028E52124FD51
:10005000E5206480347F50028003D38001C3728422
:1000600040028002800EE52124FFF521E52034FFC7
:10007000F520D28420870280028024E52124FAE53D
:10008000206480347F40028003D38001C3728440A7
:10009000028002800A0521E52170020520D2843009
:1000A000CF028002809FC2CFD2908066E52324FFDA
:1000B000F523E52234FFF52220800280028028E526
:1000C0002124FDE5206480347F50028003D3800129
:1000D000C3728440028002800EE52124FFF521E5F1
:1000E0002034FFF520D28420870280028024E5217D
:1000F00024FAE5206480347F40028003D38001C36A
:10010000728440028002800A0521E52170020520E8
:10011000D284E5234522700280028090C284C2907E
:100120007C0D7D70740AC39521FB74009520FA1232
:1001300002047470C39BF523740D9AF5220200200B
:1001400022020006E4F5F0F8F9EA4B6043EC4D704A
:100150001322EAC39C40137004EB9D400DEDC333A2
:10016000FDEC33FC05F0EC30E7E8EAC39C40067098
:1001700007EB9D5003C38008C3EB9DFBEA9CFAD3B9
:10018000E933F9E833F8ECC313FCED13FDD5F0DAED
:100190008B058A048802890322C000C00112014431
:1001A000D001D00022C000C001120144D001D00013
:1001B0008C028D0322EA30E707E4C39BFBE49AFA42
:1001C000EC30E707E4C39DFDE49CFC221201D4AAB5
:1001D00004AB0522C000C001EC6A33EA13C0E01290
:1001E00001B5120144D0E0C0E030E707E4C39BFB57
:1001F000E49AFAD0E030E607E4C39DFDE49CFCD02D
:1002000001D00022C000C001ED8BF0A4F8A9F0EDF0
:100210008AF0A429F9EC8BF0A429FAE8FBD001D0EC
:100220000022E4F5D0758124F520F521F522F5238F
:0902300012000302000002022288
:00000001FF
