:10000000020058898288838B00EC4D6036E4E0F66C
:1000100008A31DBDFFF31C80F0B800118B00EC4D50
:100020006021E7F609081DBDFFF41C80F189828874
:10003000838B00EC4D600CE493F608A31DBDFFF329
:100040001C80F022E4F5D075813778207A17F60805
:0B005000DAFC12012E02000002004446
:10010000C0F9A4B0999282F88090929982B0F8A434
:1001100080F980188C208D218000AA20E5211521EE
:10012000700215204A7002800280EF2280E60202EF
:100130001C780179007A007B207D0A7C001200196E
:100140007801790A7A007B2A7D087C0012001975F3
:10015000320075A0FF7580FFE580B4FF457420A9CB
:1001600032780029F987A0753500753632800CE5A4
:100170008024016002800280028011AA35E53615D4
:1001800036700215354A7002800280E3E580B4FFC4
:100190000F0532E53224F6500280028003753200EA
:1001A00080767533008043742AA933780029F98753
:1001B000348534A07535007536328007E580B4FF8C
:1001C000028011AA35E5361536700215354A7002DF
:1001D000800280E8E580B4FF0280140533E5332413
:1001E000F8500280028003753300E580B4FFB875D3
:1001F0003200E53224F6500280028002801A742018
:10020000A932780029F9E7B53402800C0532E532CD
:0F02100024F65002800280E602015822020131DA
:00000001FF
